:040000000200313297
:01000B0032C2
:0100130032BA
:01001B0032B2
:030023000205CA09
:03002B000203408D
:10008A00750AFF750BFF750CFF750DFF750EFF7571
:10009A000FFF7510FF7511FF751216751309751488
:1000AA000875150875160875170975180675190063
:0300BA0002002E13
:03002E000202C308
:1000BD0074FEC0E0740FC0E07480C0E012068D15B0
:1000CD0081158115811205E0E5826017740FC0E07E
:1000DD007410C0E07480C0E012068D158115811575
:1000ED00818030742DC0E07410C0E07480C0E012C7
:1000FD00068D1581158115811204A375315D75323B
:10010D00107533807530017582001205619007D02E
:10011D00120306746CC0E07410C0E07480C0E0126D
:10012D00068D1581158115817484C0E07410C0E0B1
:10013D007480C0E012068D158115811581227531EF
:10014D00907532107533807530007582001205611F
:10015D007F00BF1000501E752D0A752E00752F40A3
:10016D00752C018F82C00712050D900096120306A3
:10017D00D0070F80DD2275319C7532107533807577
:10018D0030007582001205617531A175321075331D
:10019D00807530007582071205617531A3753210B7
:1001AD007533807530017582011205617531A77542
:1001BD003210753380753001758209120561752D08
:1001CD0012752E00752F40752C0075820912050DC4
:1001DD0085222B752A007582051204A985242B759D
:1001ED002A007582081204A985202B752A017582B3
:1001FD00071204A9E526452760127531A97532103D
:10020D007533807530007582040205617531AB75EB
:10021D00321075338075300075820402056122C07D
:10022D0008C00974ADC0E07410C0E07480C0E01265
:10023D00068DE58124FBF581C020C02174C1C0E08D
:10024D007410C0E07480C0E012068DE58124FBF5CA
:10025D0081C022C02374CBC0E07410C0E07480C094
:10026D00E012068DE58124FBF581C024C02574D5EF
:10027D00C0E07410C0E07480C0E012068DE58124EA
:10028D00FBF581C028C02974E0C0E07410C0E07493
:10029D0080C0E012068DE58124FBF581C026C027C4
:1002AD0074ECC0E07410C0E07480C0E012068DE5FF
:1002BD008124FBF581221205D912032412032F127A
:1002CD00059E1205AA12033312048B1204A3120108
:1002DD004B1200BD1205EB1203CD12048B1204A3B9
:1002ED0012018312022B0508E4B50802050912025A
:0902FD002C90051412030680DBAD
:100FFE0077656C636F6D6520746F207573650D0A70
:10100E0000626F6F743A2053746172742073656C52
:10101E006620746573745B706173735D0D0A006294
:10102E006F6F743A2053746172742073656C66200E
:10103E00746573745B574454204F706572617469A4
:10104E006F6E207369676E204E47205D0D0A006437
:10105E0068743131206572726F72202D3E00232329
:10106E002323232323232323232323232323232342
:10107E002323230D0A0044485431315B6F6B5D0D01
:10108E000A0057656C436F6D652050616E005465A4
:10109E006D3A002E0048523A0025002D00200072B5
:1010AE00656164206261636B2074696D65202564DF
:1010BE000D0A0068756D3A2025640D0A0074686586
:1010CE003A2025640D0A00746865663A2025640D81
:1010DE000A00636865636B3A2025640D0A00737518
:0C10EE00627A65726F3A2025640D0A00DA
:10030600AE82AF8375CC3075CDF88E1A8F1BD2CAEC
:10031600E51A451B600512032B80F5C2CA22D2AF2F
:10032600D2ADD2AC22438701224389022275CA305C
:1003360075CBF875CC3075CDF822C0E0C0D0151A53
:1003460074FFB51A02151BC2CFD0D0D0E0327F0F92
:10035600EF14FF70FB22C2A4900014120306D2A46D
:1003660012035430A4FD20A4FD227F00758A0030BC
:10037600A4FDD28C20A4FDC28CE51C251CF51CE531
:100386001D33F51DE51E33F51EE51F33F51FE58A02
:1003960024CD5003431C010FBF200040CF7F0075C2
:1003A6008A0030A4FDD28C20A4FDC28CE528252825
:1003B600F528E52933F529E58A24CD50034328019C
:1003C6000FBF080040D922E4F51CF51DF51EF51FE8
:1003D600F528F52912035C120370AF1F8F207521D3
:1003E60000AE1D8E22752300AE1C740F5EF52475BB
:1003F6002500E51C235401FF8F26752700E52225DD
:1004060020FEE5233521FFE5242EFEE5253FFFEE00
:10041600B52806EFB5290280047582FF2275820091
:1004260022AE82AF8375E5018FE38EE475820022EA
:100436007F017590FFD2A6C2A57D007E00BF01197F
:10044600D2A7E590235401FFC2A70DBD00010EBD42
:10045600FEEBBEFFE87582012275820022AF82C0E4
:1004660007120436D007C2A6C2A5D2A78F90C2A78C
:1004760022AF82C007120436D007C2A6D2A5D2A7E1
:100486008F90C2A72275823812046375820C1204FB
:100496006375820112046375820602046375820124
:1004A600020463AF827E8074F6252B5042EF14FD62
:1004B600AB2B7C0075630A8C648B828C83C005121F
:1004C6000FC2AB82D0058B2B8D82C0051204A9D03A
:1004D600050DAB2B7C0075630A8C648B828C83C004
:1004E60005120F8CAB82D0058B2B8D820204A9746A
:1004F60001B52A027EC0EF2EF582120463AF2B747B
:10050600302FF582020477AF827E80758240C00765
:10051600C006120463D006D0077D00BD0800502730
:10052600ED252DFAE4352EFBAC2F8A828B838CF0D9
:10053600120F70F582C007C006C005120477D005F9
:10054600D006D0070D80D47401B52C027EC0EF2EE4
:10055600F582120463758200020477AF827E80748E
:1005660001B530027EC0EF2EF582120463AD31AEC6
:1005760032AF338D828E838FF0120F70FC60188C31
:1005860082C007C006C005120477D005D006D00782
:100596000DBD00DF0E80DC22438920758BF3758D3F
:1005A600F3D28E22C29FD29ED29C43878022AE82F5
:1005B600AF838E99C007C00612032BD006D0078ED4
:1005C600828F8322C2AF10990280001098028000A9
:1005D600D2AF3243E12043E10722E587C45401F557
:0905E600825387EF2243E1102249
:06006000E478FFF6D8FD74
:10003E007900E94400601B7A00901105780175A0E3
:10004E0000E493F2A308B8000205A0D9F4DAF27521
:02005E00A0FF01
:1005EF00E563456460467A01E56325E0F563E564FC
:1005FF00334012F564E5829563E583956440030A01
:10060F0080E6C3E56413F564E56313F563C3E58220
:10061F009563F5F0E58395644005F58385F082C316
:10062F00E56413F564E56313F563DAE1227A10E408
:10063F00FBFCE58225E0F582E58333F583EB33FBA5
:10064F00EC33FCEB9563F5F0EC95644006FCABF0F6
:06065F00438201DADD22F6
:100066007800E84400600A790175A000E4F309D835
:10007600FC7800E84400600C7900900001E4F0A3ED
:04008600D8FCD9FACF
:10066500C0628581627E008E831205B4D0622285C8
:10067500824585834685F047E4F542F543F5448593
:100685003448900665020753C062E581F56224FB94
:10069500FF8F48E4F542F543F544E56224FBF8860F
:1006A50045088646088647900665120753D062229C
:1006B500AF82C038C039C03A1206C28007C036C002
:1006C500378F82221581158115810540E4B54002D9
:1006D500054122AF8274302FFF24C6500B74072FBB
:1006E500FFE53560034307208F820206B5E582FFEB
:1006F500C4540FF582C0071206D8D007740F5FF5F2
:10070500820206D8858263AB3BAC3CAD3DAE3EAACA
:100715003F7565208A07EF2FF564EE235401456484
:10072500FAEB2BFBEC33FCED33FDEE33FEC3EA9520
:10073500634008EAC39563FA430301E56514FF8F37
:100745006570D18B3B8C3C8D3D8E3E8A3F228582E8
:100755003685833785423885433985443AE4F54003
:10076500F541AD45AE46AF478D828E838FF0120FB2
:1007750070FC74012DF545E43EF5468F47ECFF709E
:1007850003020F34BF25028003020F2C7E007D007B
:100795008E498E4A7A007B008E4B7C008E4CE4F5A8
:1007A50054F555754DFF754EFF854556854657855C
:1007B50047588556828557838558F0120F70F5592D
:1007C500A38582568583578556458557468558475F
:1007D5007425B559088559821206B5808574D025CA
:1007E500594003020895E55924C65003020895743B
:1007F500FFB54D55B54E5285546385556490000A35
:10080500C006C005C004C003C002120F5385825A3A
:1008150085835BD002D003D004D005D00685595C12
:10082500755D00E55C255AF55CE55D355BF55DE5D7
:100835005C24D0F554E55D34FFF555E55445556028
:10084500030207B77D010207B7854D63854E6490A6
:10085500000AC006C005C004C003C002120F5385BC
:10086500825C85835DD002D003D004D005D0068597
:10087500595A755B00E55A255CF55CE55B355DF518
:100885005DE55C24D0F54DE55D34FFF54E0207B717
:10089500742EB5591574FFB54D05B54E028003028A
:1008A50007B7E4F54DF54E0207B7749F2559500E6D
:1008B500E559248540085359DF75350180037535A1
:1008C500007420B55903020961742BB55903020957
:1008D5005B742DB5590280797442B55903020967D5
:1008E5007443B559030209727444B55903020BBF29
:1008F5007446B55903020BD57448B559030207B7B9
:100905007449B55903020BBF744AB559030207B7B9
:10091500744CB559028050744FB55903020BC67417
:1009250050B55903020B0A7453B5590280767454B5
:10093500B559030207B77455B55903020BCB745863
:10094500B55903020BD0745AB559030207B7020B08
:10095500D97E010207B77549010207B7754A010239
:1009650007B77B010207B7754B010207B7EB600AB2
:10097500E54814F98948875C800DE54824FEF55A59
:10098500855A48A95A875C855C82C006C005C004A3
:10099500C003C0021206B5D002D003D004D005D0E2
:1009A50006020BFBE54824FDF55C855C48A95C87E0
:1009B50056098757098758191985563B85573C8528
:1009C500583D8556828557838558F0C006C005C0B9
:1009D50004C003C002120F3B85825C85835DD00293
:1009E500D003D004D005D00674FFB54D09B54E0629
:1009F500855C4D855D4EEE704FC3E55C9554E55DB8
:100A050095555044E554C3955CF55AE555955DF506
:100A15005B855A56855B57155A74FFB55A02155BA7
:100A2500E5564557601C758220C006C005C004C048
:100A350003C0021206B5D002D003D004D005D006FB
:100A450080CF855A54855B55854D5A854E5B853BD0
:100A550082853C83853DF0120F70F55685565160B1
:100A65004FC3E4955A7480855BF063F08095F05030
:100A75003F155A74FFB55A02155B855182C006C0F1
:100A850005C004C003C0021206B5D002D003D004CD
:100A9500D005D006853B56853C57853D580556E41F
:100AA500B55602055785563B85573C85583D809E72
:100AB500EE7003020BFBC3E55C9554E55D9555406F
:100AC50003020BFBE554C3955CF55CE555955DF5B7
:100AD5005D855C5A855D5B155C74FFB55C02155DD3
:100AE500E55A455B7003020BF5758220C006C0050B
:100AF500C004C003C0021206B5D002D003D004D092
:100B050005D00680CCE54824FDF55A855A48A95AF2
:100B15008756098757098758191985563B85573CC4
:100B250085583D853D52748025525005755A438040
:100B35001974A025525005755A50800E74C025525F
:100B45005005755A498003755A58855A82C006C0A2
:100B550005C004C003C0021206B575823A1206B577
:100B65007582301206B57582781206B5D002D003AB
:100B7500D004D005D0067449B55A0280217450B509
:100B85005A02801A853C82C006C005C004C003C055
:100B9500021206F2D002D003D004D005D006853B60
:100BA50082C006C005C004C003C0021206F2D0020E
:100BB500D003D004D005D006803C7A01754C0A805C
:100BC50035754C088030754C0A802B754C10802685
:100BD5007C018022855982C006C005C004C003C0BF
:100BE500021206B5D002D003D004D005D006800687
:100BF500855C54855D55EC6068E54824FCFC8C48B3
:100C05008C01875E09875F09876009876119191952
:100C1500855E3B855F3C85603D85613E753BFA752C
:100C25003C10753D80853B5E853C5F853D6074016C
:100C3500255EF556E4355FF55785605885563B8545
:100C4500573C85583D855E82855F838560F0120F30
:100C550070FC8C5E7003020767855E821206B580A4
:100C6500C4E54C7003020767EB603FE54814F9895A
:100C75004887048C5E755F00756000756100855E50
:100C85003B855F3C85603D85613EEA6003020D184A
:100C9500853B5E755F00756000756100855E3B850F
:100CA5005F3C85603D85613E8069E54B6025E54893
:100CB50024FCFC8C488C01875E09875F09876009E5
:100CC5008761191919855E3B855F3C85603D8561A6
:100CD5003E8040E54824FEFC8C488C01870309874B
:100CE50004198B5EECF55F3395E0F560F561855E83
:100CF5003B855F3C85603D85613EEA7016853B5EC0
:100D0500853C5FF560F561855E3B855F3C85603DB3
:100D150085613EEA602AE53E30E723C3E4953BF56D
:100D25005EE4953CF55FE4953DF560E4953EF5613F
:100D3500855E3B855F3C85603D85613E80027A002E
:100D45007C01796BE4F55EF55F753F00854C82C0EB
:100D550006C005C004C002C001120709D001D002B7
:100D6500D004D005D006EC700DE53FC4F55CE7FB7B
:100D7500455CF7198002A73F055EE4B55E02055F95
:100D8500ECB40100E433FCE53B453C453D453E7094
:100D9500B88953855E4F855F50E554455570057597
:100DA5005401F555ED7043EE704085545E85555FF1
:100DB500AB4F0B8B5C755D00C3E55C955EE55D95A2
:100DC5005F5021758220C006C005C004C00212060E
:100DD500B5D002D004D005D006155E74FFB55E020D
:100DE500155F80CC855E54855F55EA601D75822D43
:100DF500C006C005C0041206B5D004D005D006153E
:100E05005474FFB5540215558046E54F4550604072
:100E1500E549601D75822BC006C005C0041206B5E4
:100E2500D004D005D006155474FFB554021555806D
:100E35001FE54A601B758220C006C005C004120666
:100E4500B5D004D005D006155474FFB55402155518
:100E5500EE703C85545E85555FAA5EAB5F155E748A
:100E6500FFB55E02155FC3E54F9AE5509B5041ED16
:100E750060067A307B0080047A207B008A82C00677
:100E8500C005C0041206B5D004D005D00680CAC37B
:100E9500E54F9554E5509555500FE554C3954FF5DD
:100EA5005CE5559550F55D800DE4F55CF55D8006D6
:100EB500855E5C855F5DA953854F5E85505FAA5E43
:100EC500AD5F155E74FFB55E02155FEA4D602EECF1
:100ED500B40100E433FC700A09E7C4540FFD8D3FEB
:100EE50080078705740F5DF53F853F82C006C00406
:100EF500C0011206D8D001D004D00680C1EE70031F
:100F0500020767AD5CAE5D8D038E041DBDFF011E3E
:100F1500EB4C7003020767758220C006C0051206F8
:100F2500B5D005D00680E08F821206B50207678529
:060F350040828541832289
:0B10FA003C4E4F20464C4F41543E003E
:100F3B00AA82AB83120F706003A380F8C3E5829A79
:100F4B00F582E5839BF58322E5828563F0A4C58258
:100F5B00C0F08564F0A4D0F025F0C5838563F0A4C0
:050F6B002583F583223F
:0D00310075816B120FFAE582600302002E4C
:100F700020F71430F6148883A88220F507E6A883AA
:100F800075830022E280F7E49322E022C2D5E58354
:100F900030E70DD2D5E4C39582F582E49583F583DD
:100FA000E56430E70BE4C39563F563E49564F564A9
:100FB0001205EF30D50BE4C39582F582E49583F5F5
:100FC0008322C2D5E58330E70DD2D5E4C39582F5FF
:100FD00082E49583F583E56430E70DB2D5E4C395EB
:100FE00063F563E49564F56412063C30D50BE4C305
:0E0FF0009582F582E49583F5832275820022B6
:00000001FF
