:040000000200313297
:01000B0032C2
:0100130032BA
:01001B0032B2
:030023000205F7DC
:03002B00020329A4
:10008A00750AFF750BFF750CFF750DFF750EFF7571
:10009A000FFF7510FF7511FF751216751309751488
:1000AA000875150875160875170975180675190063
:0300BA0002002E13
:03002E000202AA21
:1000BD001204C175322B753310753480753101758D
:1000CD00820012058E9007D00202EF743AC0E074E0
:1000DD0010C0E07480C0E01206BA1581158115813B
:1000ED0012060DE5826017744BC0E07410C0E07409
:1000FD0080C0E01206BA15811581158180031200AA
:10010D00BD7469C0E07410C0E07480C0E01206BA1E
:10011D001581158115817481C0E07410C0E0748063
:10012D00C0E01206BA1581158115812275328D75C3
:10013D00331075348075310075820012058E7F0085
:10014D00BF1000501E752E0A752F00753040752D8D
:10015D00018F82C00712053A9000961202EFD00768
:10016D000F80DD227532997533107534807531002D
:10017D0075820012058E75329E753310753480753B
:10018D00310075820712058E7532A07533107534E6
:10019D008075310175820112058E7532A47533108B
:1001AD0075348075310175820912058E752E1275A3
:1001BD002F00753040752D0075820902053A752A9C
:1001CD000085222B85232C7582061204C7752A0003
:1001DD0085242B85252C7582081204C7752A018567
:1001ED00202B85212C7582081204C7E52645276032
:1001FD00127532A675331075348075310075820411
:10020D0002058E222222C008C00974A8C0E0741015
:10021D00C0E07480C0E01206BAE58124FBF581C010
:10022D0020C02174BCC0E07410C0E07480C0E01226
:10023D0006BAE58124FBF581C022C02374C6C0E057
:10024D007410C0E07480C0E01206BAE58124FBF59D
:10025D0081C024C02574D0C0E07410C0E07480C08B
:10026D00E01206BAE58124FBF581C028C02974DBB4
:10027D00C0E07410C0E07480C0E01206BAE58124BD
:10028D00FBF581C026C02774E7C0E07410C0E07490
:10029D0080C0E01206BAE58124FBF5812212060624
:1002AD0012030D1203181205CB1205D712031C12DF
:1002BD0004A91204C11201391200D8120618120332
:1002CD00B9E582700F1204A91204C1120171120155
:1002DD00CB1202111202121202139005DC1202EF60
:0202ED0080D9B6
:10102B006468743131206572726F72202D3E0077C7
:10103B00656C636F6D6520746F207573650D0A00A9
:10104B00626F6F743A2053746172742073656C66AF
:10105B0020746573745B706173735D0D0A002323D9
:10106B002323232323232323232323232323232345
:10107B002323230D0A0044485431315B6F6B5D0D04
:10108B000A0057656C436F6D652050616E005465A7
:10109B006D3A002E0048523A0025002D0072656112
:1010AB0064206261636B2074696D652025640D0A91
:1010BB000068756D3A2025640D0A007468653A2046
:1010CB0025640D0A00746865663A2025640D0A00D4
:1010DB00636865636B3A2025640D0A007375627A49
:0A10EB0065726F3A2025640D0A00BB
:1002EF00AE82AF8375CC3075CDF88E1A8F1BD2CA04
:1002FF00E51A451B600512031480F5C2CA22D2AF5E
:10030F00D2ADD2AC22438701224389022275CA3073
:10031F0075CBF875CC3075CDF822C0E0C0D0151A6A
:10032F0074FFB51A02151BC2CFD0D0D0E0327F0FA9
:10033F00EF14FF70FB22C2A49000141202EFD2A49C
:10034F0012033D30A4FD20A4FD227F00758A0030EA
:10035F00A4FDD28C20A4FDC28CE51C251CF51CE548
:10036F001D33F51DE51E33F51EE51F33F51FE58A19
:10037F0024C35003431C010FBF200040CF7F0075E3
:10038F008A0030A4FDD28C20A4FDC28CE52825283C
:10039F00F528E52933F529E58A24C35003432801BD
:1003AF000FBF080040D920A4FD22E4F51CF51DF570
:1003BF001EF51FF528F529120345120359AF1F7EAD
:1003CF00008F208E21AC1D8C228E23AC1C740F5CF1
:1003DF00F5248E25E51C235401FD8D268E27AD1E99
:1003EF007C00ED2FFFEC3EFEAD1D7C00ED2FFFECF2
:1003FF003EFEAA1C53020F7B007C007D008F00EE97
:10040F00F93395E0FEFFEA28FAEB39FBEC3EFCED01
:10041F003FFDA828E529F93395E0FEFFE8B5020E68
:10042F00E9B5030AEEB50406EFB50502800475823F
:10043F00FF2275820022AE82AF8375E5018FE38EB6
:10044F00E4758200227F017590FFD2A6C2A57D00C0
:10045F007E00BF0119D2A7E590235401FFC2A70D5B
:10046F00BD00010EBDFEEBBEFFE875820122758255
:10047F000022AF82C007120454D007C2A6C2A5D271
:10048F00A78F90C2A722AF82C007120454D007C211
:10049F00A6D2A5D2A78F90C2A72275823812048147
:1004AF0075820C1204817582011204817582060215
:1004BF000481758201020481AF827E807401B52AA6
:1004CF00027EC0C3E52B940AE52C64809480E4334C
:1004DF00FD70011FEF2EF582C005120481D005C3F8
:1004EF00E52B9464E52C64809480400122ED7031FB
:1004FF0075640AF565852B82852C83120FEFAE820A
:10050F0074302EF58212049575640A756500852B7B
:10051F0082852C83120FB9AE8274302EF5820204BD
:10052F0095AF2B74302FF582020495AF827E8075C4
:10053F008240C007C006120481D006D0077D00BDDF
:10054F0008005027ED252EFAE4352FFBAC308A82B8
:10055F008B838CF0120F9DF582C007C006C0051269
:10056F000495D005D006D0070D80D47401B52D02A7
:10057F007EC0EF2EF582120481758200020495AFC2
:10058F00827E807401B531027EC0EF2EF582120497
:10059F0081AD32AE33AF348D828E838FF0120F9DCB
:1005AF00FC60188C82C007C006C005120495D005E8
:1005BF00D006D0070DBD00DF0E80DC2243892075E9
:1005CF008BF3758DF3D28E22C29FD29ED29C43871E
:1005DF008022AE82AF838E99C007C006120314D05B
:1005EF0006D0078E828F8322C2AF1099028000102F
:1005FF0098028000D2AF3243E12043E10722E58722
:0D060F00C45401F5825387EF2243E110220D
:06006000E478FFF6D8FD74
:10003E007900E94400601B7A00901100780175A0E8
:10004E0000E493F2A308B8000205A0D9F4DAF27521
:02005E00A0FF01
:10061C00E564456560467A01E56425E0F564E565C9
:10062C00334012F565E5829564E583956540030AD0
:10063C0080E6C3E56513F565E56413F564C3E582EF
:10064C009564F5F0E58395654005F58385F082C3E7
:10065C00E56513F565E56413F564DAE1227A10E4D7
:10066C00FBFCE58225E0F582E58333F583EB33FB78
:10067C00EC33FCEB9564F5F0EC95654006FCABF0C7
:06068C00438201DADD22C9
:100066007800E84400600A790175A000E4F309D835
:10007600FC7800E84400600C7900900001E4F0A3ED
:04008600D8FCD9FACF
:10069200C0638581637E008E831205E1D06322856B
:1006A200824685834785F048E4F543F544F5458560
:1006B2003549900692020780C063E581F56324FB09
:1006C200FF8F49E4F543F544F545E56324FBF886DD
:1006D20046088647088648900692120780D0632211
:1006E200AF82C039C03AC03B1206EF8007C037C0A4
:1006F200388F82221581158115810541E4B54102A9
:10070200054222AF8274302FFF24C6500B74072F8C
:10071200FFE53660034307208F820206E2E582FF8F
:10072200C4540FF582C007120705D007740F5FF596
:1007320082020705858264AB3CAC3DAD3EAE3FAA6A
:10074200407566208A07EF2FF565EE235401456553
:10075200FAEB2BFBEC33FCED33FDEE33FEC3EA95F3
:10076200644008EAC39564FA430301E56614FF8F07
:100772006670D18B3C8C3D8D3E8E3F8A40228582B5
:100782003785833885433985443A85453BE4F541CD
:10079200F542AD46AE47AF488D828E838FF0120F81
:1007A2009DFC74012DF546E43EF5478F48ECFF7041
:1007B20003020F61BF25028003020F597E007D00F4
:1007C2008E4A8E4B7A007B008E4C7C008E4DE4F577
:1007D20055F556754EFF754FFF8546578547588527
:1007E20048598557828558838559F0120F9DF55ACD
:1007F200A38582578583588557468558478559482A
:100802007425B55A08855A821206E2808574D0256D
:100812005A40030208C2E55A24C650030208C274B1
:10082200FFB54E55B54F5285556485566590000A01
:10083200C006C005C004C003C002120F8085825BDF
:1008420085835CD002D003D004D005D006855A5DE2
:10085200755E00E55D255BF55DE55E355CF55EE5A3
:100862005D24D0F555E55E34FFF556E555455660F5
:10087200030207E47D010207E4854E64854F65901B
:10088200000AC006C005C004C003C002120F808562
:10089200825D85835ED002D003D004D005D0068568
:1008A2005A5B755C00E55B255DF55DE55C355EF5E3
:1008B2005EE55D24D0F54EE55E34FFF54F0207E4B8
:1008C200742EB55A1574FFB54E05B54F028003025A
:1008D20007E4E4F54EF54F0207E4749F255A500EE3
:1008E200E55A24854008535ADF7536018003753670
:1008F200007420B55A0302098E742BB55A030209FB
:1009020088742DB55A0280797442B55A030209944B
:100912007443B55A0302099F7444B55A03020BEC9F
:100922007446B55A03020C027448B55A030207E42E
:100932007449B55A03020BEC744AB55A030207E430
:10094200744CB55A028050744FB55A03020BF374BB
:1009520050B55A03020B377453B55A028076745459
:10096200B55A030207E47455B55A03020BF87458DA
:10097200B55A03020BFD745AB55A030207E4020C7E
:10098200067E010207E4754A010207E4754B010283
:1009920007E47B010207E4754C010207E4EB600AFD
:1009A200E54914F98949875D800DE54924FEF55B27
:1009B200855B49A95B875D855D82C006C005C00471
:1009C200C003C0021206E2D002D003D004D005D088
:1009D20006020C28E54924FDF55D855D49A95D8780
:1009E20057098758098759191985573C85583D85F4
:1009F200593E8557828558838559F0C006C005C087
:100A020004C003C002120F6885825D85835ED00236
:100A1200D003D004D005D00674FFB54E09B54F06F9
:100A2200855D4E855E4FEE704FC3E55D9555E55E83
:100A320095565044E555C3955DF55BE556955EF5D3
:100A42005C855B57855C58155B74FFB55B02155C72
:100A5200E5574558601C758220C006C005C004C019
:100A620003C0021206E2D002D003D004D005D006A1
:100A720080CF855B55855C56854E5B854F5C853C9A
:100A820082853D83853EF0120F9DF5578557526052
:100A92004FC3E4955B7480855CF063F08095F05001
:100AA2003F155B74FFB55B02155C855282C006C0C0
:100AB20005C004C003C0021206E2D002D003D00473
:100AC200D005D006853C57853D58853E590557E4EB
:100AD200B55702055885573C85583D85593E809E3D
:100AE200EE7003020C28C3E55D9555E55E95564010
:100AF20003020C28E555C3955DF55DE556955EF557
:100B02005E855D5B855E5C155D74FFB55D02155E9D
:100B1200E55B455C7003020C22758220C006C005AD
:100B2200C004C003C0021206E2D002D003D004D037
:100B320005D00680CCE54924FDF55B855B49A95BC0
:100B42008757098758098759191985573C85583D90
:100B520085593E853E53748025535005755B43800D
:100B62001974A025535005755B50800E74C025532F
:100B72005005755B498003755B58855B82C006C072
:100B820005C004C003C0021206E275823A1206E2F0
:100B92007582301206E27582781206E2D002D00324
:100BA200D004D005D0067449B55B0280217450B5DB
:100BB2005B02801A853D82C006C005C004C003C026
:100BC2000212071FD002D003D004D005D006853C04
:100BD20082C006C005C004C003C00212071FD002B3
:100BE200D003D004D005D006803C7A01754D0A802E
:100BF20035754D088030754D0A802B754D10802655
:100C02007C018022855A82C006C005C004C003C090
:100C1200021206E2D002D003D004D005D00680062C
:100C2200855D55855E56EC6068E54924FCFC8C497F
:100C32008C01875F09876009876109876219191921
:100C4200855F3C85603D85613E85623F753CF575FB
:100C52003D10753E80853C5F853D60853E61740137
:100C6200255FF557E43560F55885615985573C8510
:100C7200583D85593E855F828560838561F0120FFC
:100C82009DFC8C5F7003020794855F821206E280EE
:100C9200C4E54D7003020794EB603FE54914F989FE
:100CA2004987048C5F756000756100756200855F1D
:100CB2003C85603D85613E85623FEA6003020D45E9
:100CC200853C5F756000756100756200855F3C85DB
:100CD200603D85613E85623F8069E54C6025E5495E
:100CE20024FCFC8C498C01875F09876009876109B4
:100CF2008762191919855F3C85603D85613E856271
:100D02003F8040E54924FEFC8C498C01870309871A
:100D120004198B5FECF5603395E0F561F562855F50
:100D22003C85603D85613E85623FEA7016853C5F89
:100D3200853D60F561F562855F3C85603D85613E7C
:100D420085623FEA602AE53F30E723C3E4953CF53C
:100D52005FE4953DF560E4953EF561E4953FF5620B
:100D6200855F3C85603D85613E85623F80027A00F9
:100D72007C01796CE4F55FF560754000854D82C0B9
:100D820006C005C004C002C001120736D001D0025D
:100D9200D004D005D006EC700DE540C4F55DE7FB4C
:100DA200455DF7198002A740055FE4B55F02056063
:100DB200ECB40100E433FCE53C453D453E453F7063
:100DC200B88954855F50856051E555455670057563
:100DD2005501F556ED7043EE704085555F855660BE
:100DE200AB500B8B5D755E00C3E55D955FE55E956F
:100DF200605021758220C006C005C004C0021206E0
:100E0200E2D002D004D005D006155F74FFB55F02B0
:100E1200156080CC855F55856056EA601D75822D10
:100E2200C006C005C0041206E2D004D005D00615E3
:100E32005574FFB5550215568046E5504551604040
:100E4200E54A601D75822BC006C005C0041206E289
:100E5200D004D005D006155574FFB555021556803D
:100E62001FE54B601B758220C006C005C004120638
:100E7200E2D004D005D006155574FFB555021556BB
:100E8200EE703C85555F855660AA5FAB60155F7456
:100E9200FFB55F021560C3E5509AE5519B5041EDE5
:100EA20060067A307B0080047A207B008A82C0064A
:100EB200C005C0041206E2D004D005D00680CAC321
:100EC200E5509555E5519556500FE555C39550F5AA
:100ED2005DE5569551F55E800DE4F55DF55E8006A3
:100EE200855F5D85605EA95485505F855160AA5F0C
:100EF200AD60155F74FFB55F021560EA4D602EECC0
:100F0200B40100E433FC700A09E7C4540FFD8D40BC
:100F120080078705740F5DF540854082C006C004D6
:100F2200C001120705D001D004D00680C1EE7003C3
:100F3200020794AD5DAE5E8D038E041DBDFF011EE2
:100F4200EB4C7003020794758220C006C00512069E
:100F5200E2D005D00680E08F821206E20207948575
:060F62004182854283225A
:0B10F5003C4E4F20464C4F41543E0043
:100F6800AA82AB83120F9D6003A380F8C3E5829A1F
:100F7800F582E5839BF58322E5828564F0A4C5822A
:100F8800C0F08565F0A4D0F025F0C5838564F0A491
:050F98002583F5832212
:0D00310075816C121027E582600302002E1D
:100F9D0020F71430F6148883A88220F507E6A8837D
:100FAD0075830022E280F7E49322E022C2D5E58327
:100FBD0030E70DD2D5E4C39582F582E49583F583B0
:100FCD00E56530E70BE4C39564F564E49565F56577
:100FDD0012061C30D50BE4C39582F582E49583F59A
:100FED008322C2D5E58330E70DD2D5E4C39582F5D2
:100FFD0082E49583F583E56530E70DB2D5E4C395BD
:10100D0064F564E49565F56512066930D50BE4C3A6
:0E101D009582F582E49583F583227582002288
:00000001FF
