:040000000200313297
:01000B0032C2
:0100130032BA
:01001B0032B2
:030023000205D102
:03002B0002033895
:10008A00750AFF750BFF750CFF750DFF750EFF7571
:10009A000FFF7510FF7511FF751216751309751488
:1000AA000875150875160875170975180675190063
:0300BA0002002E13
:03002E000202BB10
:1000BD007405C0E07410C0E07480C0E012069415A1
:1000CD0081158115811205E7E58260177416C0E070
:1000DD007410C0E07480C0E012069415811581156E
:1000ED008180307434C0E07410C0E07480C0E012C0
:1000FD00069415811581158112049B753264753333
:10010D00107534807531017582001205689007D025
:10011D001202FE7473C0E07410C0E07480C0E0126F
:10012D000694158115811581748BC0E07410C0E0A3
:10013D007480C0E0120694158115811581227532E7
:10014D00977533107534807531007582001205680E
:10015D007F00BF1000501E752E0A752F00753040A0
:10016D00752D018F82C0071205149000961202FEA4
:10017D00D0070F80DD227532A3753310753480756D
:10018D0031007582001205687532A875331075340B
:10019D00807531007582071205687532AA753310A6
:1001AD007534807531017582011205687532AE7531
:1001BD003310753480753101758209120568752EFD
:1001CD0012752F00753040752D00758209120514BA
:1001DD00752A0085222B85232C7582061204A175A4
:1001ED002A0085242B85252C7582081204A1752AD9
:1001FD000185202B85212C7582081204A1E5264549
:10020D002760127532B075331075348075310075F5
:10021D0082040205682222C008C00974B2C0E074CD
:10022D0010C0E07480C0E0120694E58124FBF581D6
:10023D00C020C02174C6C0E07410C0E07480C0E05E
:10024D00120694E58124FBF581C022C02374D0C031
:10025D00E07410C0E07480C0E0120694E58124FBC8
:10026D00F581C024C02574DAC0E07410C0E074803C
:10027D00C0E0120694E58124FBF581C028C02974E5
:10028D00E5C0E07410C0E07480C0E0120694E58112
:10029D0024FBF581C026C02774F1C0E07410C0E0C6
:1002AD007480C0E0120694E58124FBF581221205CD
:1002BD00E012031C1203271205A51205B112032B20
:1002CD0012048312049B12014B1200BD1205F2128F
:1002DD0003C512048312049B120183120223050825
:1002ED00E4B5080205091202249005DC1202FE8015
:0102FD00DB25
:1010050077656C636F6D6520746F207573650D0A68
:1010150000626F6F743A2053746172742073656C4B
:101025006620746573745B706173735D0D0A00628D
:101035006F6F743A2053746172742073656C662007
:10104500746573745B574454204F7065726174699D
:101055006F6E207369676E204E47205D0D0A006430
:1010650068743131206572726F72202D3E00232322
:10107500232323232323232323232323232323233B
:101085002323230D0A0044485431315B6F6B5D0DFA
:101095000A0057656C436F6D652050616E0054659D
:1010A5006D3A002E0048523A0025002D0072656108
:1010B50064206261636B2074696D652025640D0A87
:1010C5000068756D3A2025640D0A007468653A203C
:1010D50025640D0A00746865663A2025640D0A00CA
:1010E500636865636B3A2025640D0A007375627A3F
:0A10F50065726F3A2025640D0A00B1
:1002FE00AE82AF8375CC3075CDF88E1A8F1BD2CAF5
:10030E00E51A451B600512032380F5C2CA22D2AF3F
:10031E00D2ADD2AC22438701224389022275CA3064
:10032E0075CBF875CC3075CDF822C0E0C0D0151A5B
:10033E0074FFB51A02151BC2CFD0D0D0E0327F0F9A
:10034E00EF14FF70FB22C2A49000141202FED2A47E
:10035E0012034C30A4FD20A4FD227F00758A0030CC
:10036E00A4FDD28C20A4FDC28CE51C251CF51CE539
:10037E001D33F51DE51E33F51EE51F33F51FE58A0A
:10038E0024CD5003431C010FBF200040CF7F0075CA
:10039E008A0030A4FDD28C20A4FDC28CE52825282D
:1003AE00F528E52933F529E58A24CD5003432801A4
:1003BE000FBF080040D922E4F51CF51DF51EF51FF0
:1003CE00F528F529120354120368AF1F8F207521EB
:1003DE0000AE1D8E22752300AE1C740F5EF52475C3
:1003EE002500E51C235401FF8F26752700E52225E5
:1003FE0020FEE5233521FFE5242EFEE5253FFFEE09
:10040E00B52806EFB5290280047582FF2275820099
:10041E0022AE82AF8375E5018FE38EE475820022F2
:10042E007F017590FFD2A6C2A57D007E00BF011987
:10043E00D2A7E590235401FFC2A70DBD00010EBD4A
:10044E00FEEBBEFFE87582012275820022AF82C0EC
:10045E000712042ED007C2A6C2A5D2A78F90C2A79C
:10046E0022AF82C00712042ED007C2A6D2A5D2A7F1
:10047E008F90C2A72275823812045B75820C12040B
:10048E005B75820112045B75820602045B75820144
:10049E0002045BAF827E807401B52A027EC0C3E582
:1004AE002B940AE52C64809480E433FD70011FEFD9
:1004BE002EF582C00512045BD005C3E52B9464E5CE
:1004CE002C64809480400122ED703175640AF565CC
:1004DE00852B82852C83120FC9AE8274302EF58245
:1004EE0012046F75640A756500852B82852C831244
:1004FE000F93AE8274302EF58202046FAF2B7430E0
:10050E002FF58202046FAF827E80758240C007C0D5
:10051E000612045BD006D0077D00BD08005027ED03
:10052E00252EFAE4352FFBAC308A828B838CF012A9
:10053E000F77F582C007C006C00512046FD005D034
:10054E0006D0070D80D47401B52D027EC0EF2EF5B6
:10055E008212045B75820002046FAF827E8074018A
:10056E00B531027EC0EF2EF58212045BAD32AE3392
:10057E00AF348D828E838FF0120F77FC60188C82D1
:10058E00C007C006C00512046FD005D006D0070DF7
:10059E00BD00DF0E80DC22438920758BF3758DF351
:1005AE00D28E22C29FD29ED29C43878022AE82AF31
:1005BE00838E99C007C006120323D006D0078E8201
:1005CE008F8322C2AF10990280001098028000D251
:1005DE00AF3243E12043E10722E587C45401F5829F
:0805EE005387EF2243E11022C4
:06006000E478FFF6D8FD74
:10003E007900E94400601B7A0090110A780175A0DE
:10004E0000E493F2A308B8000205A0D9F4DAF27521
:02005E00A0FF01
:1005F600E564456560467A01E56425E0F564E565F0
:10060600334012F565E5829564E583956540030AF6
:1006160080E6C3E56513F565E56413F564C3E58215
:100626009564F5F0E58395654005F58385F082C30D
:10063600E56513F565E56413F564DAE1227A10E4FD
:10064600FBFCE58225E0F582E58333F583EB33FB9E
:10065600EC33FCEB9564F5F0EC95654006FCABF0ED
:06066600438201DADD22EF
:100066007800E84400600A790175A000E4F309D835
:10007600FC7800E84400600C7900900001E4F0A3ED
:04008600D8FCD9FACF
:10066C00C0638581637E008E831205BBD0632285B7
:10067C00824685834785F048E4F543F544F5458586
:10068C00354990066C02075AC063E581F56324FB7B
:10069C00FF8F49E4F543F544F545E56324FBF88603
:1006AC004608864708864890066C12075AD0632283
:1006BC00AF82C039C03AC03B1206C98007C037C0F0
:1006CC00388F82221581158115810541E4B54102CF
:1006DC00054222AF8274302FFF24C6500B74072FB3
:1006EC00FFE53660034307208F820206BCE582FFDC
:1006FC00C4540FF582C0071206DFD007740F5FF5E4
:10070C00820206DF858264AB3CAC3DAD3EAE3FAAB7
:10071C00407566208A07EF2FF565EE235401456579
:10072C00FAEB2BFBEC33FCED33FDEE33FEC3EA9519
:10073C00644008EAC39564FA430301E56614FF8F2D
:10074C006670D18B3C8C3D8D3E8E3F8A40228582DB
:10075C003785833885433985443A85453BE4F541F3
:10076C00F542AD46AE47AF488D828E838FF0120FA7
:10077C0077FC74012DF546E43EF5478F48ECFF708D
:10078C0003020F3BBF25028003020F337E007D0066
:10079C008E4A8E4B7A007B008E4C7C008E4DE4F59D
:1007AC0055F556754EFF754FFF854657854758854D
:1007BC0048598557828558838559F0120F77F55A19
:1007CC00A385825785835885574685584785594850
:1007DC007425B55A08855A821206BC808574D025BA
:1007EC005A400302089CE55A24C6500302089C7424
:1007FC00FFB54E55B54F5285556485566590000A28
:10080C00C006C005C004C003C002120F5A85825B2B
:10081C0085835CD002D003D004D005D006855A5D08
:10082C00755E00E55D255BF55DE55E355CF55EE5C9
:10083C005D24D0F555E55E34FFF556E5554556601B
:10084C00030207BE7D010207BE854E64854F65908D
:10085C00000AC006C005C004C003C002120F5A85AE
:10086C00825D85835ED002D003D004D005D006858E
:10087C005A5B755C00E55B255DF55DE55C355EF509
:10088C005EE55D24D0F54EE55E34FFF54F0207BE04
:10089C00742EB55A1574FFB54E05B54F0280030280
:1008AC0007BEE4F54EF54F0207BE749F255A500E55
:1008BC00E55A24854008535ADF7536018003753696
:1008CC00007420B55A03020968742BB55A03020947
:1008DC0062742DB55A0280797442B55A0302096EBE
:1008EC007443B55A030209797444B55A03020BC612
:1008FC007446B55A03020BDC7448B55A030207BEA2
:10090C007449B55A03020BC6744AB55A030207BEA2
:10091C00744CB55A028050744FB55A03020BCD7407
:10092C0050B55A03020B117453B55A0280767454A5
:10093C00B55A030207BE7455B55A03020BD274584C
:10094C00B55A03020BD7745AB55A030207BE020BF1
:10095C00E07E010207BE754A010207BE754B01021B
:10096C0007BE7B010207BE754C010207BEEB600A95
:10097C00E54914F98949875D800DE54924FEF55B4D
:10098C00855B49A95B875D855D82C006C005C00497
:10099C00C003C0021206BCD002D003D004D005D0D4
:1009AC0006020C02E54924FDF55D855D49A95D87CC
:1009BC0057098758098759191985573C85583D851A
:1009CC00593E8557828558838559F0C006C005C0AD
:1009DC0004C003C002120F4285825D85835ED00283
:1009EC00D003D004D005D00674FFB54E09B54F0620
:1009FC00855D4E855E4FEE704FC3E55D9555E55EAA
:100A0C0095565044E555C3955DF55BE556955EF5F9
:100A1C005C855B57855C58155B74FFB55B02155C98
:100A2C00E5574558601C758220C006C005C004C03F
:100A3C0003C0021206BCD002D003D004D005D006ED
:100A4C0080CF855B55855C56854E5B854F5C853CC0
:100A5C0082853D83853EF0120F77F557855752609E
:100A6C004FC3E4955B7480855CF063F08095F05027
:100A7C003F155B74FFB55B02155C855282C006C0E6
:100A8C0005C004C003C0021206BCD002D003D004BF
:100A9C00D005D006853C57853D58853E590557E411
:100AAC00B55702055885573C85583D85593E809E63
:100ABC00EE7003020C02C3E55D9555E55E9556405C
:100ACC0003020C02E555C3955DF55DE556955EF5A3
:100ADC005E855D5B855E5C155D74FFB55D02155EC4
:100AEC00E55B455C7003020BFC758220C006C005FB
:100AFC00C004C003C0021206BCD002D003D004D084
:100B0C0005D00680CCE54924FDF55B855B49A95BE6
:100B1C008757098758098759191985573C85583DB6
:100B2C0085593E853E53748025535005755B438033
:100B3C001974A025535005755B50800E74C0255355
:100B4C005005755B498003755B58855B82C006C098
:100B5C0005C004C003C0021206BC75823A1206BC62
:100B6C007582301206BC7582781206BCD002D00396
:100B7C00D004D005D0067449B55B0280217450B501
:100B8C005B02801A853D82C006C005C004C003C04C
:100B9C00021206F9D002D003D004D005D006853C51
:100BAC0082C006C005C004C003C0021206F9D00200
:100BBC00D003D004D005D006803C7A01754D0A8054
:100BCC0035754D088030754D0A802B754D1080267B
:100BDC007C018022855A82C006C005C004C003C0B7
:100BEC00021206BCD002D003D004D005D006800679
:100BFC00855D55855E56EC6068E54924FCFC8C49A6
:100C0C008C01875F09876009876109876219191947
:100C1C00855F3C85603D85613E85623F753CFF7517
:100C2C003D10753E80853C5F853D60853E6174015D
:100C3C00255FF557E43560F55885615985573C8536
:100C4C00583D85593E855F828560838561F0120F22
:100C5C0077FC8C5F700302076E855F821206BC8086
:100C6C00C4E54D700302076EEB603FE54914F9894A
:100C7C004987048C5F756000756100756200855F43
:100C8C003C85603D85613E85623FEA6003020D1F35
:100C9C00853C5F756000756100756200855F3C8501
:100CAC00603D85613E85623F8069E54C6025E54984
:100CBC0024FCFC8C498C01875F09876009876109DA
:100CCC008762191919855F3C85603D85613E856297
:100CDC003F8040E54924FEFC8C498C018703098741
:100CEC0004198B5FECF5603395E0F561F562855F77
:100CFC003C85603D85613E85623FEA7016853C5FB0
:100D0C00853D60F561F562855F3C85603D85613EA2
:100D1C0085623FEA602AE53F30E723C3E4953CF562
:100D2C005FE4953DF560E4953EF561E4953FF56231
:100D3C00855F3C85603D85613E85623F80027A001F
:100D4C007C01796CE4F55FF560754000854D82C0DF
:100D5C0006C005C004C002C001120710D001D002A9
:100D6C00D004D005D006EC700DE540C4F55DE7FB72
:100D7C00455DF7198002A740055FE4B55F02056089
:100D8C00ECB40100E433FCE53C453D453E453F7089
:100D9C00B88954855F50856051E555455670057589
:100DAC005501F556ED7043EE704085555F855660E4
:100DBC00AB500B8B5D755E00C3E55D955FE55E9595
:100DCC00605021758220C006C005C004C002120606
:100DDC00BCD002D004D005D006155F74FFB55F02FD
:100DEC00156080CC855F55856056EA601D75822D37
:100DFC00C006C005C0041206BCD004D005D0061530
:100E0C005574FFB5550215568046E5504551604066
:100E1C00E54A601D75822BC006C005C0041206BCD5
:100E2C00D004D005D006155574FFB5550215568063
:100E3C001FE54B601B758220C006C005C00412065E
:100E4C00BCD004D005D006155574FFB55502155607
:100E5C00EE703C85555F855660AA5FAB60155F747C
:100E6C00FFB55F021560C3E5509AE5519B5041ED0B
:100E7C0060067A307B0080047A207B008A82C00670
:100E8C00C005C0041206BCD004D005D00680CAC36D
:100E9C00E5509555E5519556500FE555C39550F5D0
:100EAC005DE5569551F55E800DE4F55DF55E8006C9
:100EBC00855F5D85605EA95485505F855160AA5F32
:100ECC00AD60155F74FFB55F021560EA4D602EECE6
:100EDC00B40100E433FC700A09E7C4540FFD8D40E3
:100EEC0080078705740F5DF540854082C006C004FD
:100EFC00C0011206DFD001D004D00680C1EE700311
:100F0C0002076EAD5DAE5E8D038E041DBDFF011E2E
:100F1C00EB4C700302076E758220C006C0051206EA
:100F2C00BCD005D00680E08F821206BC02076E850D
:060F3C0041828542832280
:0B10FF003C4E4F20464C4F41543E0039
:100F4200AA82AB83120F776003A380F8C3E5829A6B
:100F5200F582E5839BF58322E5828564F0A4C58250
:100F6200C0F08565F0A4D0F025F0C5838564F0A4B7
:050F72002583F5832238
:0D00310075816C121001E582600302002E43
:100F770020F71430F6148883A88220F507E6A883A3
:100F870075830022E280F7E49322E022C2D5E5834D
:100F970030E70DD2D5E4C39582F582E49583F583D6
:100FA700E56530E70BE4C39564F564E49565F5659D
:100FB7001205F630D50BE4C39582F582E49583F5E7
:100FC7008322C2D5E58330E70DD2D5E4C39582F5F8
:100FD70082E49583F583E56530E70DB2D5E4C395E3
:100FE70064F564E49565F56512064330D50BE4C3F3
:0E0FF7009582F582E49583F5832275820022AF
:00000001FF
