:040000000200313297
:01000B0032C2
:0100130032BA
:01001B0032B2
:03002300020616BC
:03002B0002034984
:10008A00750AFF750BFF750CFF750DFF750EFF7571
:10009A000FFF7510FF7511FF751216751309751488
:1000AA000875150875160875170975180675190063
:0300BA0002002E13
:03002E000202AA21
:1000BD001204E175344A7535107536807533017546
:1000CD0082001205AE9007D00202EC7459C0E074A4
:1000DD0010C0E07480C0E01206D91581158115811C
:1000ED0012062CE5826017746AC0E07410C0E074CB
:1000FD0080C0E01206D9158115811581800312008B
:10010D00BD7488C0E07410C0E07480C0E01206D9E0
:10011D0015811581158174A0C0E07410C0E0748044
:10012D00C0E01206D9158115811581227534AC7583
:10013D0035107536807533007582001205AE7F005F
:10014D00BF1000501E75300A753100753240752F85
:10015D00018F82C00712055A9000961202ECD0074B
:10016D000F80DD227534B875351075368075330006
:10017D007582001205AE7534BD75351075368075F6
:10018D0033007582071205AE7534BF75351075369F
:10019D00807533017582011205AE7534C375351046
:1001AD007536807533017582091205AE753012757D
:1001BD003100753240752F0075820902055A752C74
:1001CD000085242D85252E7582061204E7752C00D9
:1001DD0085262D85272E7582081204E7752C01853D
:1001ED00222D85232E7582081204E7E52845296006
:1001FD00127534C5753510753680753300758204EA
:10020D000205AE222222C008C00974C7C0E07410D6
:10021D00C0E07480C0E01206D9E58124FBF581C0F1
:10022D0022C02374DBC0E07410C0E07480C0E01203
:10023D0006D9E58124FBF581C024C02574E5C0E015
:10024D007410C0E07480C0E01206D9E58124FBF57E
:10025D0081C026C02774EFC0E07410C0E07480C068
:10026D00E01206D9E58124FBF581C02AC02B74FA72
:10027D00C0E07410C0E07480C0E01206D9E581249E
:10028D00FBF581C028C0297406C0E07411C0E0746C
:10029D0080C0E01206D9E58124FBF58122120625E6
:1002AD0012031012031B1205EB12031F1204C912C5
:1002BD0004E11201391200D81206371203D9E58272
:1002CD00700F1204C91204E11201711201CB120256
:0F02DD00111202121202139005DC1202EC80D9EA
:10104A006468743131206572726F72202D3E0077A8
:10105A00656C636F6D6520746F207573650D0A008A
:10106A00626F6F743A2053746172742073656C6690
:10107A0020746573745B706173735D0D0A002323BA
:10108A002323232323232323232323232323232326
:10109A002323230D0A0044485431315B6F6B5D0DE5
:1010AA000A0057656C436F6D652050616E00546588
:1010BA006D3A002E0048523A0025002D00726561F3
:1010CA0064206261636B2074696D652025640D0A72
:1010DA000068756D3A2025640D0A007468653A2027
:1010EA0025640D0A00746865663A2025640D0A00B5
:1010FA00636865636B3A2025640D0A007375627A2A
:0A110A0065726F3A2025640D0A009B
:1002EC00AE82AF83851CCA851DCB851CCC851DCDEC
:1002FC008E1A8F1BD2CAE51A451B60051203178094
:10030C00F5C2CA22D2AFD2ACD2AD2243870122436E
:10031C00890222751DF9751C2974F9C0E0E4C0E04E
:10032C007429C0E0E4C0E07414C0E07411C0E0743F
:10033C0080C0E01206D9E58124F9F58122C0E0C025
:10034C00D0151A74FFB51A02151BC2CFD0D0D0E04D
:01035C00326E
:06111400256425640A00B9
:10035D007F0FEF14FF70FB22C2A49000141202EC69
:10036D00D2A412035D30A4FD20A4FD227F00758A66
:10037D000030A4FDD28C20A4FDC28CE51E251EF5F7
:10038D001EE51F33F51FE52033F520E52133F5215B
:10039D00E58A24C35003431E010FBF200040CF7FC9
:1003AD0000758A0030A4FDD28C20A4FDC28CE52AF4
:1003BD00252AF52AE52B33F52BE58A24C350034373
:1003CD002A010FBF080040D920A4FD22E4F51EF537
:1003DD001FF520F521F52AF52B120365120379AFD0
:1003ED00217E008F228E23AC1F8C248E25AC1E7493
:1003FD000F5CF5268E27E51E235401FD8D288E29D1
:10040D00AD207C00ED2FFFEC3EFEAD1F7C00ED2FEF
:10041D00FFEC3EFEAA1E53020F7B007C007D008F79
:10042D0000EEF93395E0FEFFEA28FAEB39FBEC3EDE
:10043D00FCED3FFDA82AE52BF93395E0FEFFE8B56D
:10044D00020EE9B5030AEEB50406EFB50502800408
:10045D007582FF2275820022AE82AF8375E5018F12
:10046D00E38EE4758200227F017590FFD2A6C2A5AE
:10047D007D007E00BF0119D2A7E590235401FFC274
:10048D00A70DBD00010EBDFEEBBEFFE8758201227A
:10049D0075820022AF82C007120474D007C2A6C2B3
:1004AD00A5D2A78F90C2A722AF82C007120474D025
:1004BD0007C2A6D2A5D2A78F90C2A72275823812E5
:1004CD0004A175820C1204A17582011204A175821A
:1004DD00060204A17582010204A1AF827E8074011F
:1004ED00B52C027EC0C3E52D940AE52E6480948060
:1004FD00E433FD70011FEF2EF582C0051204A1D06B
:10050D0005C3E52D9464E52E64809480400122EDB1
:10051D00703175660AF567852D82852E8312100E52
:10052D00AE8274302EF5821204B575660A756700B9
:10053D00852D82852E83120FD8AE8274302EF582D2
:10054D000204B5AF2D74302FF5820204B5AF827E53
:10055D0080758240C007C0061204A1D006D0077D69
:10056D0000BD08005027ED2530FAE43531FBAC32E3
:10057D008A828B838CF0120FBCF582C007C006C037
:10058D00051204B5D005D006D0070D80D47401B581
:10059D002F027EC0EF2EF5821204A1758200020497
:1005AD00B5AF827E807401B533027EC0EF2EF58229
:1005BD001204A1AD34AE35AF368D828E838FF0121D
:1005CD000FBCFC60188C82C007C006C0051204B5B4
:1005DD00D005D006D0070DBD00DF0E80DC2243898B
:1005ED0020758BF3758DF3D28EC29FD29ED29C4314
:1005FD00878022AE82AF838E99C007C00612031783
:10060D00D006D0078E828F8322C2AF109902800050
:10061D001098028000D2AF3243E12043E10722E57A
:0E062D0087C45401F5825387EF2243E1102267
:06006000E478FFF6D8FD74
:10003E007900E94400601B7A00901125780175A0C3
:10004E0000E493F2A308B8000205A0D9F4DAF27521
:02005E00A0FF01
:10063B00E566456760467A01E56625E0F566E567A0
:10064B00334012F567E5829566E583956740030AAB
:10065B0080E6C3E56713F567E56613F566C3E582C8
:10066B009566F5F0E58395674005F58385F082C3C4
:10067B00E56713F567E56613F566DAE1227A10E4B0
:10068B00FBFCE58225E0F582E58333F583EB33FB59
:10069B00EC33FCEB9566F5F0EC95674006FCABF0A4
:0606AB00438201DADD22AA
:100066007800E84400600A790175A000E4F309D835
:10007600FC7800E84400600C7900900001E4F0A3ED
:04008600D8FCD9FACF
:1006B100C0658581657E008E83120600D065228526
:1006C100824885834985F04AE4F545F546F5478535
:1006D100374B9006B102079FC065E581F56524FBA4
:1006E100FF8F4BE4F545F546F547E56524FBF886B4
:1006F1004808864908864A9006B112079FD06522AC
:10070100AF82C03BC03CC03D12070E8007C039C05C
:100711003A8F82221581158115810543E4B5430283
:10072100054422AF8274302FFF24C6500B74072F6B
:10073100FFE53860034307208F82020701E582FF4E
:10074100C4540FF582C007120724D007740F5FF558
:1007510082020724858266AB3EAC3FAD40AE41AA22
:10076100427568208A07EF2FF567EE23540145672C
:10077100FAEB2BFBEC33FCED33FDEE33FEC3EA95D4
:10078100664008EAC39566FA430301E56814FF8FE2
:100791006870D18B3E8C3F8D408E418A422285828A
:1007A1003985833A85453B85463C85473DE4F5439C
:1007B100F544AD48AE49AF4A8D828E838FF0120F5A
:1007C100BCFC74012DF548E43EF5498F4AECFF70FD
:1007D10003020F80BF25028003020F787E007D0097
:1007E1008E4C8E4D7A007B008E4E7C008E4FE4F550
:1007F10057F5587550FF7551FF85485985495A85F8
:100801004A5B855982855A83855BF0120FBCF55C82
:10081100A385825985835A855948855A49855B4AFA
:100821007425B55C08855C82120701808574D0252A
:100831005C40030208E1E55C24C650030208E17450
:10084100FFB55055B5515285576685586790000AD6
:10085100C006C005C004C003C002120F9F85825D9F
:1008610085835ED002D003D004D005D006855C5FBD
:10087100756000E55F255DF55FE560355EF560E576
:100881005F24D0F557E56034FFF558E557455860CA
:10089100030208037D0102080385506685516790B4
:1008A100000AC006C005C004C003C002120F9F8524
:1008B100825F858360D002D003D004D005D0068545
:1008C1005C5D755E00E55D255FF55FE55E3560F5B4
:1008D10060E55F24D0F550E56034FFF5510208036F
:1008E100742EB55C1574FFB55005B5510280030235
:1008F1000803E4F550F551020803749F255C500E7E
:10090100E55C24854008535CDF7538018003753848
:10091100007420B55C030209AD742BB55C030209B8
:10092100A7742DB55C0280797442B55C030209B3EA
:100931007443B55C030209BE7444B55C03020C0B3D
:100941007446B55C03020C217448B55C03020803CC
:100951007449B55C03020C0B744AB55C03020803CD
:10096100744CB55C028050744FB55C03020C127478
:1009710050B55C03020B567453B55C028076745417
:10098100B55C030208037455B55C03020C17745877
:10099100B55C03020C1C745AB55C03020803020C1B
:1009A100257E01020803754C01020803754D010201
:1009B10008037B01020803754E01020803EB600A7C
:1009C100E54B14F9894B875F800DE54B24FEF55DFE
:1009D100855D4BA95D875F855F82C006C005C00448
:1009E100C003C002120701D002D003D004D005D049
:1009F10006020C47E54B24FDF55F855F4BA95F8738
:100A01005909875A09875B191985593E855A3F85C6
:100A11005B40855982855A83855BF0C006C005C05D
:100A210004C003C002120F8785825F858360D002F4
:100A3100D003D004D005D00674FFB55009B55106D6
:100A4100855F50856051EE704FC3E55F9557E56056
:100A510095585044E557C3955FF55DE5589560F5A8
:100A61005E855D59855E5A155D74FFB55D02155E43
:100A7100E559455A601C758220C006C005C004C0F6
:100A810003C002120701D002D003D004D005D00662
:100A910080CF855D57855E5885505D85515E853E69
:100AA10082853F838540F0120FBCF559855954600A
:100AB1004FC3E4955D7480855EF063F08095F050DE
:100AC1003F155D74FFB55D02155E855482C006C099
:100AD10005C004C003C002120701D002D003D00434
:100AE100D005D006853E59853F5A85405B0559E4BE
:100AF100B55902055A85593E855A3F855B40809E0E
:100B0100EE7003020C47C3E55F9557E560955840C9
:100B110003020C47E557C3955FF55FE5589560F50E
:100B210060855F5D85605E155F74FFB55F0215606E
:100B3100E55D455E7003020C41758220C006C0056B
:100B4100C004C003C002120701D002D003D004D0F8
:100B510005D00680CCE54B24FDF55D855D4BA95D97
:100B6100875909875A09875B191985593E855A3F63
:100B7100855B40854055748025555005755D4380E2
:100B81001974A025555005755D50800E74C025550A
:100B91005005755D498003755D58855D82C006C04D
:100BA10005C004C003C00212070175823A12070191
:100BB100758230120701758278120701D002D003C5
:100BC100D004D005D0067449B55D0280217450B5BA
:100BD1005D02801A853F82C006C005C004C003C003
:100BE1000212073ED002D003D004D005D006853EC4
:100BF10082C006C005C004C003C00212073ED00275
:100C0100D003D004D005D006803C7A01754F0A800C
:100C110035754F088030754F0A802B754F1080262F
:100C21007C018022855C82C006C005C004C003C06F
:100C310002120701D002D003D004D005D0068006ED
:100C4100855F57856058EC6068E54B24FCFC8C4B54
:100C51008C018761098762098763098764191919FA
:100C610085613E85623F856340856441753E1A75A5
:100C71003F11754080853E61853F62854063740107
:100C81002561F559E43562F55A85635B85593E85E1
:100C91005A3F855B408561828562838563F0120FCF
:100CA100BCFC8C6170030207B3856182120701806D
:100CB100C4E54F70030207B3EB603FE54B14F989BC
:100CC1004B87048C617562007563007564008561F2
:100CD1003E85623F856340856441EA6003020D649D
:100CE100853E6175620075630075640085613E85AE
:100CF100623F8563408564418069E54E6025E54B2F
:100D010024FCFC8C4B8C018761098762098763098C
:100D1100876419191985613E85623F856340856441
:100D2100418040E54B24FEFC8C4B8C0187030987F5
:100D310004198B61ECF5623395E0F563F564856127
:100D41003E85623F856340856441EA7016853E6158
:100D5100853F62F563F56485613E85623F85634049
:100D6100856441EA602AE54130E723C3E4953EF515
:100D710061E4953FF562E49540F563E49541F564DE
:100D810085613E85623F85634085644180027A00CA
:100D91007C01796EE4F561F562754200854F82C090
:100DA10006C005C004C002C001120755D001D0021F
:100DB100D004D005D006EC700DE542C4F55FE7FB29
:100DC100455FF7198002A7420561E4B5610205623A
:100DD100ECB40100E433FCE53E453F45404541703C
:100DE100B88956856152856253E557455870057536
:100DF1005701F558ED7043EE704085576185586293
:100E0100AB520B8B5F756000C3E55F9561E5609543
:100E1100625021758220C006C005C004C0021207BD
:100E210001D002D004D005D006156174FFB561026E
:100E3100156280CC856157856258EA601D75822DE7
:100E4100C006C005C004120701D004D005D00615A4
:100E51005774FFB5570215588046E5524553604017
:100E6100E54C601D75822BC006C005C00412070148
:100E7100D004D005D006155774FFB5570215588018
:100E81001FE54D601B758220C006C005C004120716
:100E910001D004D005D006155774FFB55702155877
:100EA100EE703C855761855862AA61AB6215617429
:100EB100FFB561021562C3E5529AE5539B5041EDBE
:100EC10060067A307B0080047A207B008A82C0062B
:100ED100C005C004120701D004D005D00680CAC3E2
:100EE100E5529557E5539558500FE557C39552F57F
:100EF1005FE5589553F560800DE4F55FF560800678
:100F010085615F856260A956855261855362AA61D8
:100F1100AD62156174FFB561021562EA4D602EEC98
:100F2100B40100E433FC700A09E7C4540FFD8D429B
:100F310080078705740F5DF542854282C006C004B3
:100F4100C001120724D001D004D00680C1EE700385
:100F51000207B3AD5FAE608D038E041DBDFF011EA0
:100F6100EB4C70030207B3758220C006C00512075F
:100F710001D005D00680E08F821207010207B385F8
:060F810043828544832237
:0B111A003C4E4F20464C4F41543E001D
:100F8700AA82AB83120FBC6003A380F8C3E5829AE1
:100F9700F582E5839BF58322E5828566F0A4C58209
:100FA700C0F08567F0A4D0F025F0C5838566F0A46E
:050FB7002583F58322F3
:0D00310075816E121046E582600302002EFC
:100FBC0020F71430F6148883A88220F507E6A8835E
:100FCC0075830022E280F7E49322E022C2D5E58308
:100FDC0030E70DD2D5E4C39582F582E49583F58391
:100FEC00E56730E70BE4C39566F566E49567F5674E
:100FFC0012063B30D50BE4C39582F582E49583F55C
:10100C008322C2D5E58330E70DD2D5E4C39582F5B2
:10101C0082E49583F583E56730E70DB2D5E4C3959B
:10102C0066F566E49567F56712068830D50BE4C360
:0E103C009582F582E49583F583227582002269
:00000001FF
