:040000000200313297
:01000B0032C2
:0100130032BA
:01001B0032B2
:030023000205F5DE
:03002B00020328A5
:20008A00750AFF750BFF750CFF750DFF750EFF750FFF7510FF7511FF751216751309751493
:1300AA000875150875160875170975180675190002002E30
:03002E000202AA21
:2000BD001204C075342975351075368075330175820012058D9007D00202CB7438C0E0745C
:2000DD0010C0E07480C0E01206B815811581158112060BE58260177449C0E07410C0E07437
:2000FD0080C0E01206B815811581158180031200BD7467C0E07410C0E07480C0E01206B8DC
:20011D00158115811581747FC0E07410C0E07480C0E01206B81581158115812275348B7558
:20013D00351075368075330075820012058D7F00BF1000501E75300A753100753240752F53
:20015D00018F82C0071205399000961202CBD0070F80DD2275349775351075368075330022
:20017D0075820012058D75349C75351075368075330075820712058D75349E7535107536A7
:20019D008075330175820112058D7534A275351075368075330175820912058D75301275D4
:2001BD003100753240752F00758209020539752C0085242D85252E7582061204C6752C005D
:2001DD0085262D85272E7582081204C6752C0185222D85232E7582081204C6E52845296073
:2001FD00127534A475351075368075330075820402058D222222C008C00974A6C0E0741032
:20021D00C0E07480C0E01206B8E58124FBF581C022C02374BAC0E07410C0E07480C0E01265
:20023D0006B8E58124FBF581C024C02574C4C0E07410C0E07480C0E01206B8E58124FBF545
:20025D0081C026C02774CEC0E07410C0E07480C0E01206B8E58124FBF581C02AC02B74D9AC
:20027D00C0E07410C0E07480C0E01206B8E58124FBF581C028C02974E5C0E07410C0E074DC
:20029D0080C0E01206B8E58124FBF581221206041202EF1202FA1205CA1202FEC280900141
:0E02BD00F41202CBD2809001F41202CB80EE3C
:201029006468743131206572726F72202D3E0077656C636F6D6520746F207573650D0A00BD
:20104900626F6F743A2053746172742073656C6620746573745B706173735D0D0A002323F5
:20106900232323232323232323232323232323232323230D0A0044485431315B6F6B5D0DD6
:201089000A0057656C436F6D652050616E0054656D3A002E0048523A0025002D0072656166
:2010A90064206261636B2074696D652025640D0A0068756D3A2025640D0A007468653A20A4
:2010C90025640D0A00746865663A2025640D0A00636865636B3A2025640D0A007375627A0A
:0A10E90065726F3A2025640D0A00BD
:2002CB00AE82AF83851CCA851DCB851CCC851DCD8E1A8F1BD2CAE51A451B60051202F680C1
:2002EB00F5C2CA22D2AFD2ACD2AD224387012243890222751DF9751C2974F9C0E0E4C0E0FD
:20030B007429C0E0E4C0E074F3C0E07410C0E07480C0E01206B8E58124F9F58122C0E0C007
:11032B00D0151A74FFB51A02151BC2CFD0D0D0E0323B
:0610F300256425640A00DB
:20033C007F0FEF14FF70FB22C2A49000141202CBD2A412033C30A4FD20A4FD227F00758AA2
:20035C000030A4FDD28C20A4FDC28CE51E251EF51EE51F33F51FE52033F520E52133F52103
:20037C00E58A24C35003431E010FBF200040CF7F00758A0030A4FDD28C20A4FDC28CE52A8E
:20039C00252AF52AE52B33F52BE58A24C35003432A010FBF080040D920A4FD22E4F51EF59B
:2003BC001FF520F521F52AF52B120344120358AF217E008F228E23AC1F8C248E25AC1E74B6
:2003DC000F5CF5268E27E51E235401FD8D288E29AD207C00ED2FFFEC3EFEAD1F7C00ED2FF2
:2003FC00FFEC3EFEAA1E53020F7B007C007D008F00EEF93395E0FEFFEA28FAEB39FBEC3EAA
:20041C00FCED3FFDA82AE52BF93395E0FEFFE8B5020EE9B5030AEEB50406EFB505028004E7
:08043C007582FF227582002287
:0F044400AE82AF8375E5018FE38EE475820022EF
:200453007F017590FFD2A6C2A57D007E00BF0119D2A7E590235401FFC2A70DBD00010EBDEE
:20047300FEEBBEFFE87582012275820022AF82C007120453D007C2A6C2A5D2A78F90C2A7A0
:2004930022AF82C007120453D007C2A6D2A5D2A78F90C2A72275823812048075820C12040F
:2004B30080758201120480758206020480758201020480AF827E807401B52C027EC0C3E5AD
:2004D3002D940AE52E64809480E433FD70011FEF2EF582C005120480D005C3E52D9464E519
:2004F3002E64809480400122ED703175660AF567852D82852E83120FEDAE8274302EF582A0
:2005130012049475660A756700852D82852E83120FB7AE8274302EF582020494AF2D743088
:200533002FF582020494AF827E80758240C007C006120480D006D0077D00BD08005027ED8C
:200553002530FAE43531FBAC328A828B838CF0120F9BF582C007C006C005120494D005D0AC
:2005730006D0070D80D47401B52F027EC0EF2EF582120480758200020494AF827E80740132
:20059300B533027EC0EF2EF582120480AD34AE35AF368D828E838FF0120F9BFC60188C8270
:1705B300C007C006C005120494D005D006D0070DBD00DF0E80DC227E
:2005CA00438920758BF3758DF3D28EC29FD29ED29C43878022AE82AF838E99C007C006120A
:1A05EA0002F6D006D0078E828F8322C2AF10990280001098028000D2AF3295
:1606040043E12043E10722E587C45401F5825387EF2243E1102212
:06006000E478FFF6D8FD74
:20003E007900E94400601B7A00901104780175A000E493F2A308B8000205A0D9F4DAF27553
:02005E00A0FF01
:20061A00E566456760467A01E56625E0F566E567334012F567E5829566E583956740030ABD
:20063A0080E6C3E56713F567E56613F566C3E5829566F5F0E58395674005F58385F082C31E
:0D065A00E56713F567E56613F566DAE12242
:200667007A10E4FBFCE58225E0F582E58333F583EB33FBEC33FCEB9566F5F0EC95674006EB
:09068700FCABF0438201DADD2234
:200066007800E84400600A790175A000E4F309D8FC7800E84400600C7900900001E4F0A398
:04008600D8FCD9FACF
:20069000C0658581657E008E831205DFD0652285824885834985F04AE4F545F546F5478565
:2006B000374B90069002077EC065E581F56524FBFF8F4BE4F545F546F547E56524FBF886A2
:1006D0004808864908864A90069012077ED065220F
:2006E000AF82C03BC03CC03D1206ED8007C039C03A8F82221581158115810543E4B543023B
:20070000054422AF8274302FFF24C6500B74072FFFE53860034307208F820206E0E582FF34
:20072000C4540FF582C007120703D007740F5FF582020703858266AB3EAC3FAD40AE41AA35
:20074000427568208A07EF2FF567EE2354014567FAEB2BFBEC33FCED33FDEE33FEC3EA9599
:20076000664008EAC39566FA430301E56814FF8F6870D18B3E8C3F8D408E418A4222858225
:200780003985833A85453B85463C85473DE4F543F544AD48AE49AF4A8D828E838FF0120FCF
:2007A0009BFC74012DF548E43EF5498F4AECFF7003020F5FBF25028003020F577E007D00F0
:2007C0008E4C8E4D7A007B008E4E7C008E4FE4F557F5587550FF7551FF85485985495A8561
:2007E0004A5B855982855A83855BF0120F9BF55CA385825985835A855948855A49855B4AD8
:200800007425B55C08855C821206E0808574D0255C40030208C0E55C24C650030208C07438
:20082000FFB55055B5515285576685586790000AC006C005C004C003C002120F7E85825D10
:2008400085835ED002D003D004D005D006855C5F756000E55F255DF55FE560355EF560E5CD
:200860005F24D0F557E56034FFF558E557455860030207E27D010207E2855066855167907C
:20088000000AC006C005C004C003C002120F7E85825F858360D002D003D004D005D0068564
:2008A0005C5D755E00E55D255FF55FE55E3560F560E55F24D0F550E56034FFF5510207E23F
:2008C000742EB55C1574FFB55005B5510280030207E2E4F550F5510207E2749F255C500E11
:2008E000E55C24854008535CDF75380180037538007420B55C0302098C742BB55C0302095D
:2009000086742DB55C0280797442B55C030209927443B55C0302099D7444B55C03020BEA07
:200920007446B55C03020C007448B55C030207E27449B55C03020BEA744AB55C030207E29B
:20094000744CB55C028050744FB55C03020BF17450B55C03020B357453B55C02807674546D
:20096000B55C030207E27455B55C03020BF67458B55C03020BFB745AB55C030207E2020CD5
:20098000047E010207E2754C010207E2754D010207E27B010207E2754E010207E2EB600A23
:2009A000E54B14F9894B875F800DE54B24FEF55D855D4BA95D875F855F82C006C005C00441
:2009C000C003C0021206E0D002D003D004D005D006020C26E54B24FDF55F855F4BA95F87DF
:2009E0005909875A09875B191985593E855A3F855B40855982855A83855BF0C006C005C060
:200A000004C003C002120F6685825F858360D002D003D004D005D00674FFB55009B5510647
:200A2000855F50856051EE704FC3E55F9557E56095585044E557C3955FF55DE5589560F57A
:200A40005E855D59855E5A155D74FFB55D02155EE559455A601C758220C006C005C004C0D5
:200A600003C0021206E0D002D003D004D005D00680CF855D57855E5885505D85515E853EA9
:200A800082853F838540F0120F9BF559855954604FC3E4955D7480855EF063F08095F050E5
:200AA0003F155D74FFB55D02155E855482C006C005C004C003C0021206E0D002D003D004EB
:200AC000D005D006853E59853F5A85405B0559E4B55902055A85593E855A3F855B40809EE8
:200AE000EE7003020C26C3E55F9557E56095584003020C26E557C3955FF55FE5589560F557
:200B000060855F5D85605E155F74FFB55F021560E55D455E7003020C20758220C006C00557
:200B2000C004C003C0021206E0D002D003D004D005D00680CCE54B24FDF55D855D4BA95D2E
:200B4000875909875A09875B191985593E855A3F855B40854055748025555005755D4380E2
:200B60001974A025555005755D50800E74C025555005755D498003755D58855D82C006C014
:200B800005C004C003C0021206E075823A1206E07582301206E07582781206E0D002D003BB
:200BA000D004D005D0067449B55D0280217450B55D02801A853F82C006C005C004C003C0BA
:200BC0000212071DD002D003D004D005D006853E82C006C005C004C003C00212071DD00298
:200BE000D003D004D005D006803C7A01754F0A8035754F088030754F0A802B754F1080267A
:200C00007C018022855C82C006C005C004C003C0021206E0D002D003D004D005D0068006DC
:200C2000855F57856058EC6068E54B24FCFC8C4B8C018761098762098763098764191919CC
:200C400085613E85623F856340856441753EF9753F10754080853E61853F6285406374016C
:200C60002561F559E43562F55A85635B85593E855A3F855B408561828562838563F0120F6E
:200C80009BFC8C6170030207928561821206E080C4E54F7003020792EB603FE54B14F9898C
:200CA0004B87048C6175620075630075640085613E85623F856340856441EA6003020D43AE
:200CC000853E6175620075630075640085613E85623F8563408564418069E54E6025E54BFB
:200CE00024FCFC8C4B8C01876109876209876309876419191985613E85623F85634085640D
:200D0000418040E54B24FEFC8C4B8C018703098704198B61ECF5623395E0F563F56485617B
:200D20003E85623F856340856441EA7016853E61853F62F563F56485613E85623F85634020
:200D4000856441EA602AE54130E723C3E4953EF561E4953FF562E49540F563E49541F56492
:200D600085613E85623F85634085644180027A007C01796EE4F561F562754200854F82C019
:200D800006C005C004C002C001120734D001D002D004D005D006EC700DE542C4F55FE7FB48
:200DA000455FF7198002A7420561E4B561020562ECB40100E433FCE53E453F454045417075
:200DC000B88956856152856253E55745587005755701F558ED7043EE7040855761855862E8
:200DE000AB520B8B5F756000C3E55F9561E56095625021758220C006C005C004C002120642
:200E0000E0D002D004D005D006156174FFB56102156280CC856157856258EA601D75822DD6
:200E2000C006C005C0041206E0D004D005D006155774FFB5570215588046E552455360405D
:200E4000E54C601D75822BC006C005C0041206E0D004D005D006155774FFB5570215588022
:200E60001FE54D601B758220C006C005C0041206E0D004D005D006155774FFB5570215586F
:200E8000EE703C855761855862AA61AB62156174FFB561021562C3E5529AE5539B5041EDC7
:200EA00060067A307B0080047A207B008A82C006C005C0041206E0D004D005D00680CAC32F
:200EC000E5529557E5539558500FE557C39552F55FE5589553F560800DE4F55FF560800617
:200EE00085615F856260A956855261855362AA61AD62156174FFB561021562EA4D602EECB2
:200F0000B40100E433FC700A09E7C4540FFD8D4280078705740F5DF542854282C006C004AF
:200F2000C001120703D001D004D00680C1EE7003020792AD5FAE608D038E041DBDFF011EE8
:200F4000EB4C7003020792758220C006C0051206E0D005D00680E08F821206E0020792857E
:060F600043828544832258
:0B10F9003C4E4F20464C4F41543E003F
:180F6600AA82AB83120F9B6003A380F8C3E5829AF582E5839BF5832207
:1D0F7E00E5828566F0A4C582C0F08567F0A4D0F025F0C5838566F0A42583F583221B
:0D00310075816E121025E582600302002E1D
:1C0F9B0020F71430F6148883A88220F507E6A88375830022E280F7E49322E02265
:200FB700C2D5E58330E70DD2D5E4C39582F582E49583F583E56730E70BE4C39566F566E458
:160FD7009567F56712061A30D50BE4C39582F582E49583F583229F
:200FED00C2D5E58330E70DD2D5E4C39582F582E49583F583E56730E70DB2D5E4C39566F5E3
:18100D0066E49567F56712066730D50BE4C39582F582E49583F58322CF
:0410250075820022AE
:00000001FF
